:100000000C94FE000C9416010C940A020C94160138
:100010000C9416010C9416010C9416010C94160104
:100020000C9416010C9416010C9416010C941601F4
:100030000C9416010C9416010C9416010C941601E4
:100040000C9416010C9416010C9416010C941601D4
:100050000C9416010C9416010C9416010C941601C4
:100060000C9416010C9416010C9416010C941601B4
:100070000C9416010C9416010C9416010C941601A4
:100080000C9416010C9416010C9416010C94160194
:100090000C9416010C9416010C9416010C94160184
:1000A0000C9416010C9416010C9416010C94160174
:1000B0000C9416010C9416010C9416010C94160164
:1000C0000C9416010C9416010C9416010C94160154
:1000D0000C9416010C9416010C9416010C94160144
:1000E0000C9416010C9416010C9416010C94160134
:1000F0000C9416010C9416010C9416010C94160124
:100100000C9416010C9416010C942C020C941601FC
:100110000C9416010C9416010C9416010C94160103
:100120000C9416010C9416010C9416010C941601F3
:100130000C9416010C9416010C9416010C941601E3
:100140000C9416010C9416010C9416010C941601D3
:100150000C9416010C9416010C9416010C941601C3
:100160000C9416010C9416010C9416010C941601B3
:100170000C9416010C9416010C9416010C941601A3
:100180000C9416010C9416010C9416010C94160193
:100190000C9416010C9416010C9416010C94160183
:1001A0000C9416010C9416010C9416010C94160173
:1001B0000C9416010C9416010C9416010C94160163
:1001C0000C9416010C9416010C9416010C94160153
:1001D0000C9416010C9416010C9416010C94160143
:1001E0000C9416010C9416010C9416010C94160133
:1001F0000C9416010C9416010C94160111241FBEC8
:10020000CFEFCDBFDFE3DEBF00E00CBF18BE19BEED
:100210001ABE1BBE20E2A0E0B0E201C01D92A230D7
:10022000B207E1F70E944E020C9430030C940000D8
:1002300082E0809350008091510081FFFCCF88EDD7
:1002400084BF81E0809340000895E0E0F6E088EF0D
:1002500080831482E0EAF6E08FEB808388E1848378
:100260001092400680E58093C00B0895E0E6F6E02A
:1002700088EF8183858384E08283E0ECF7E08AE085
:1002800081838683E0EAF9E081E08683178288E152
:1002900084838BE0858308958093C30B8091C20B88
:1002A00087FFFCCF8091C30B08958FEF0C944C0116
:1002B000FF920F931F93CF93DF931F92CDB7DEB7BB
:1002C00000EA16E098E0F92EF801F68294E09583B2
:1002D0008F7380680E944C010E9455018983F80148
:1002E000F58289810F90DF91CF911F910F91FF903F
:1002F0000895EF92FF921F93CF93DF931F92CDB794
:10030000DEB790EAE92E96E0F92E18E0F7011683A1
:1003100094E095838F7369830E944C016981862FD5
:100320000E944C01F70115830F90DF91CF911F912F
:10033000FF90EF900895FF920F931F93CF93DF9359
:100340001F92CDB7DEB700EA16E090E1F92EF80172
:10035000F68294E096838F7380680E944C010E941D
:1003600055018983F801F58289810F90DF91CF9142
:100370001F910F91FF900895EF92FF921F93CF93DB
:10038000DF931F92CDB7DEB790EAE92E96E0F92E03
:1003900010E1F701168394E096838F7369830E94BE
:1003A0004C016981862F0E944C01F70115830F9043
:1003B000DF91CF911F91FF90EF900895E0E4F6E078
:1003C00081E0818780E8828782E0878B68EC83E226
:1003D0000E94790167E980E20C947901E0E0F6E09F
:1003E00088E0848381E0818792E09287878B6FEC3D
:1003F00080E20E94BC0168E082E20E94BC0160E3EE
:1004000083E20C94BC019091A10995FFFCCF8093ED
:10041000A00908951F920F920FB60F92112408B6EB
:100420000F9218BE0BB60F921BBE8F93EF93FF93E4
:1004300081E080930120E0E4F6E084858160848798
:10044000FF91EF918F910F900BBE0F9008BE0F9010
:100450000FBE0F901F9018951F920F920FB60F921C
:10046000112408B60F9218BE0BB60F921BBE8F93C5
:10047000EF93FF9381E080930020E0E0F6E0848535
:1004800081608487FF91EF918F910F900BBE0F9049
:1004900008BE0F900FBE0F901F901895CF93DF935B
:1004A000CDB7DEB72C97CDBFDEBF81E08093A20031
:1004B0000E9418010E9436010E94250160E080E23E
:1004C0000E94BC0161E083E20E9479010E94EE017A
:1004D0000E94DE017894809100208130D9F489E275
:1004E0000E949B018E8388E20E949B018D838BE298
:1004F0000E949B018C838AE20E949B018B838DE288
:100500000E949B018A838CE20E949B018983109246
:100510000020E1CF809101208130E9F689E20E943C
:1005200058018C8788E20E9458018B878BE20E94D9
:1005300058018A878AE20E94580189878DE20E94C9
:10054000580188878CE20E9458018F832C8588850A
:10055000022E000C330B37FF03C031952195310972
:10056000082E000C990B97FF03C091958195910976
:1005700082179307C4F42C858A85022E000C330B56
:1005800037FF03C0319521953109082E000C990BD6
:1005900097FF03C0919581959109821793071CF4E9
:1005A00088E50E9403022A858885022E000C330B01
:1005B00037FF03C0319521953109082E000C990BA6
:1005C00097FF03C091958195910982179307C4F411
:1005D0002A858C85022E000C330B37FF03C0319522
:1005E00021953109082E000C990B97FF03C09195B6
:1005F00081959109821793071CF489E50E940302F3
:1006000028858A85022E000C330B37FF03C03195F5
:1006100021953109082E000C990B97FF03C0919585
:100620008195910982179307C4F428858C85022E41
:10063000000C330B37FF03C0319521953109082E8B
:10064000000C990B97FF03C0919581959109821732
:1006500093071CF48AE50E940302109201203BCF0D
:04066000F894FFCF3C
:00000001FF
