:020000020000FC
:02000000FFC13E
:10040000CFEFCDBFCFE3CEBF3AD01ED02AD00AD097
:1004100001D0FDCF0F930591003011F00CD0FBCF30
:100420000F9108951F930091A10907FFFCCF009140
:10043000A0091F9108951F931091A10915FFFCCFEA
:100440000093A0091F91089508E10093A4090BE30C
:100450000093A50907E80093A60900EE0093A709F9
:10046000089508E0009361060093650604E0009398
:1004700062060AE00093C1070093C60708950F9330
:1004800002E00093500008D008ED0093340001E032
:10049000009340000F9108950F931F9303E0109174
:0C04A00051001017C9F71F910F9108952B
:00000001FF
