S00D00004C616237642E737265636D
S11300000C94FE000C9424010C9424010C942401FF
S11300100C9424010C9424010C9424010C942401C8
S11300200C9424010C9424010C9424010C942401B8
S11300300C9424010C9424010C9424010C942401A8
S11300400C9424010C9424010C9424010C94240198
S11300500C9424010C9424010C9424010C94240188
S11300600C9424010C9424010C9424010C94240178
S11300700C9424010C9424010C9424010C94240168
S11300800C9424010C9424010C9424010C94240158
S11300900C9424010C9424010C9424010C94240148
S11300A00C9424010C9424010C9424010C94240138
S11300B00C9424010C9424010C9424010C94D70175
S11300C00C9424010C9424010C9424010C94240118
S11300D00C9424010C9424010C9424010C94240108
S11300E00C9424010C9424010C9424010C942401F8
S11300F00C9424010C9424010C9424010C942401E8
S11301000C9424010C9424010C9424010C942401D7
S11301100C9424010C9424010C9424010C942401C7
S11301200C9424010C9424010C9424010C942401B7
S11301300C9424010C9424010C9424010C942401A7
S11301400C9424010C9424010C9424010C94240197
S11301500C9424010C9424010C9424010C94240187
S11301600C9424010C9424010C9424010C94240177
S11301700C9424010C9424010C9424010C94240167
S11301800C9424010C9424010C9424010C94240157
S11301900C9424010C9424010C9424010C94240147
S11301A00C9424010C9424010C9424010C94240137
S11301B00C9424010C9424010C9424010C94240127
S11301C00C9424010C9424010C9424010C94240117
S11301D00C9424010C9424010C9424010C94240107
S11301E00C9424010C9424010C9424010C942401F7
S11301F00C9424010C9424010C94240111241FBE9A
S1130200CFEFCDBFDFE3DEBF00E00CBF18BE19BEE9
S11302101ABE1BBE12E2A0E0B0E2EEE4F4E000E09D
S11302200BBF02C007900D92AE31B107D9F71BBEC8
S113023022E2AEE1B2E201C01D92A032B207E1F7C0
S11302400E94F0010C9425020C94000082E080933B
S11302505000E0E5F0E0818181FFFDCF88ED84BFAF
S113026081E08093400020910A2030910B20E0E04F
S1130270FAE026A337A3808310A211A282E086832A
S11302800895E0E0F1E080E8808395EA908B99E5B9
S1130290928B838B88EC90E0848B958B88EF90E233
S11302A0808F918F128E88E1848F83E0858F168EE4
S11302B0089584E080930006E0E0F3E085E0808325
S11302C0118288E182830895E0E6F6E088EF818375
S11302D0858384E08283E0ECF7E08AE0818386838F
S11302E0E0EAF9E089E8868380EF878388E1848304
S11302F08BE085830895E0EAF9E081818823ECF7B7
S11303008091A0090895E0EAF9E0918195FFFDCF7D
S11303108093A0090895CF93DF93EC01888188230B
S113032031F021960E94830189918111FBCFDF91E5
S1130330CF910895E0E0F1E0848184FDFDCF88EF62
S113034090E2E0E0F1E0808F918F128E0895E0E07A
S1130350F1E0848184FDFDCF8EE290E2E0E0F1E003
S1130360808F918F128E0895833719F0843721F08E
S113037006C00E949A0108950E94A701089590E082
S1130380C09719F41092000A0895A0E0BAE021E0A1
S11303902C93880F991F880F991FFC01EA5FFF4D6A
S11303A08081918196968D939C93979708951F923F
S11303B00F920FB60F92112408B60F9218BE8F93A6
S11303C09F9381E090E080931E2290931F229F913F
S11303D08F910F9008BE0F900FBE0F901F9018952D
S11303E0CF93DF9300D0CDB7DEB70E9426010E94E1
S11303F059010E9441010E94640182E08093A2009D
S113040078940E947B01898389810E94B4011A82B5
S11304101B828A819B810697A0F7EA81FB81EE0FFC
S1130420FF1FE050F04E808191810E948B0182EC8D
S113043091E20E948B018A819B8101968A839B832E
S11104408A819B81069748F3DCCFF894FFCFA6
S113044EC421D721EF210000000064190000BC0C68
S113045E00007F0800005E060000140500003D0445
S113046E0000A20300002F030000D402000052007B
S113047EA400F60048019A01EB013D028F02E1024D
S113048E33038503D70329047B04CD041E057005AD
S113049EC20514066606B8060A075C07AE0700080E
S11304AE5108A308F50847099909EB093D0A8F0A73
S11304BEE10A330B840BD60B280C7A0CCC0C1E0DD4
S11304CE700DC20D140E660EB70E090F5B0FAD0F35
S11304DEFF0FAD0F5B0F090FB70E660E140EC20D94
S11304EE700D1E0DCC0C7A0C280CD60B840B330B12
S11304FEE10A8F0A3D0AEB0999094709F508A30891
S113050E51080008AE075C070A07B806660614060B
S113051EC20570051E05CD047B042904D70385038B
S113052E3303E1028F023D02EB019A014801F6000A
S113053EA40052000000AE0F0008800800097F09D5
S113054EFD09780AF10A670BDA0B490CB30C190D85
S113055E790DD40D290E780EC00E020F3C0F6F0FBD
S113056E9B0FBF0FDB0FEF0FFB0FFF0FFB0FEF0FF9
S113057EDB0FBF0F9B0F6F0F3C0F020FC00E780ED9
S113058E290ED40D790D190DB30C490CDA0B670B2A
S113059EF10A780AFD097F090009800800087F071F
S11305AEFF068006020687050E0598042504B60389
S11305BE4C03E60286022B02D60187013F01FD00A1
S11305CEC3009000640040002400100004000000EA
S11305DE040010002400400064009000C300FD00DD
S11305EE3F018701D6012B028602E6024C03B603B5
S11305FE250498040E05870502068006FF067F076C
S113060E00080A00733A206F75747075742073694C
S113061E6E75736F696400743A206F7574707574B7
S113062E20747269616E676C65207761766500303F
S113063E2D393A206D616B65206F75747075742059
S113064E77617665666F726D206B6579626F617224
S111065E6420696E7075742A3530487A000085
S9030000FC
