:020000020000FC
:02000000FFC13E
:040160000C945702A2
:10040000CFEFCDBFCFE3CEBF3BD018D02BD00C93D6
:100410005AD04C9358D0FBCF1F930091A10907FFEE
:10042000FCCF0091A0091F9108951F931091A1097D
:1004300015FFFCCF0093A0091F91089500E10093E0
:10044000A30908E10093A4090BE30093A50907E8B9
:100450000093A60900EE0093A70901E00093A20013
:100460007894089508E0009361060093650604E01F
:10047000009362060AE00093C1070093C60708953F
:100480000F9302E00093500008D008ED0093340071
:1004900001E0009340000F9108950F931F9303E034
:1004A000109151001017C9F71F910F9108950F93E4
:1004B00000913F000F930000AFDFB7DF0F91009373
:1004C0003F000F91189500000000000000002395E8
:1004D0002F3FC9F720E00000000000000000339526
:0804E0003F3F89F730E0089569
:00000001FF
