:100000000C94FE000C9416010C949A010C941601A9
:100010000C9416010C9416010C9416010C94160104
:100020000C9416010C9416010C9416010C941601F4
:100030000C9416010C9416010C9416010C941601E4
:100040000C9416010C9416010C9416010C941601D4
:100050000C9416010C9416010C9416010C941601C4
:100060000C9416010C9416010C9416010C941601B4
:100070000C9416010C9416010C9416010C941601A4
:100080000C9416010C9416010C9416010C94160194
:100090000C9416010C9416010C9416010C94160184
:1000A0000C9416010C9416010C9416010C94160174
:1000B0000C9416010C9416010C9416010C94160164
:1000C0000C9416010C9416010C9416010C94160154
:1000D0000C9416010C9416010C9416010C94160144
:1000E0000C9416010C9416010C9416010C94160134
:1000F0000C9416010C9416010C9416010C94160124
:100100000C9416010C9416010C94B0010C94160179
:100110000C9416010C9416010C9416010C94160103
:100120000C9416010C9416010C9416010C941601F3
:100130000C9416010C9416010C9416010C941601E3
:100140000C9416010C9416010C9416010C941601D3
:100150000C9416010C9416010C9416010C941601C3
:100160000C9416010C9416010C9416010C941601B3
:100170000C9416010C9416010C9416010C941601A3
:100180000C9416010C9416010C9416010C94160193
:100190000C9416010C9416010C9416010C94160183
:1001A0000C9416010C9416010C9416010C94160173
:1001B0000C9416010C9416010C9416010C94160163
:1001C0000C9416010C9416010C9416010C94160153
:1001D0000C9416010C9416010C9416010C94160143
:1001E0000C9416010C9416010C9416010C94160133
:1001F0000C9416010C9416010C94160111241FBEC8
:10020000CFEFCDBFDFE3DEBF00E00CBF18BE19BEED
:100210001ABE1BBE20E2A0E0B0E201C01D92A230D7
:10022000B207E1F70E94C6010C9403020C9400008F
:1002300082E080935000E0E5F0E0818181FFFDCF16
:1002400088ED84BF81E08093400008958FEF809314
:100250000006E0EAF6E0808388E1848387E7809304
:10026000C00B08958093C30BE0ECFBE082818823F0
:10027000ECF78091C30B08951F93CF93DF93162F54
:1002800010920406C0EAD6E094E09C830E943201FA
:10029000812F0E94320188E08C83DF91CF911F91E2
:1002A00008951F93CF93DF93162F10920406C0EA90
:1002B000D6E01C820E943201812F0E94320180E12F
:1002C0008C83DF91CF911F910895E0E4F6E081E007
:1002D000818790E89287118292E0978B8093A200A9
:1002E00061E083E20E943C0168E883E20E943C01F5
:1002F00067E980E20E943C010895E0E0F6E088E0D2
:10030000848391E0918782E0828781818D7F8183E0
:10031000978B61E080E20E9451016FEC80E20E94C5
:10032000510168E082E20E94510160E383E20E9491
:10033000510108951F920F920FB60F92112408B623
:100340000F9218BE8F9381E08093012010920020BD
:100350008F910F9008BE0F900FBE0F901F901895B1
:100360001F920F920FB60F92112408B60F9218BE6B
:100370008F9381E080930020109201208F910F9045
:1003800008BE0F900FBE0F901F901895CF93DF936C
:10039000CDB7DEB76897CDBFDEBF0E9418010E94BF
:1003A00026010E9465010E947D0109E210E0A8E299
:1003B000B0E0EBE2F0E06AE270E04DE250E02CE207
:1003C00030E080910120813069F409831A83AB8386
:1003D000BC83ED83FE836F83788749875A872B8799
:1003E0003C87EFCF80910020813059F70D871E8721
:1003F000AF87B88BE98BFA8B6B8B7C8B4D8B5E8BCD
:0A0400002F8B388FDECFF894FFCF6A
:00000001FF
