S00D00004C616235652E737265636E
S11300000C94FE000C941C010C941C010C941C0117
S11300100C941C010C941C010C941C010C941C01E8
S11300200C941C010C941C010C941C010C941C01D8
S11300300C941C010C941C010C941C010C941C01C8
S11300400C941C010C941C010C941C010C941C01B8
S11300500C941C010C941C010C941C010C941C01A8
S11300600C941C010C941C010C941C010C941C0198
S11300700C941C010C941C010C941C010C941C0188
S11300800C941C010C941C010C941C010C941C0178
S11300900C941C010C941C010C941C010C941C0168
S11300A00C941C010C941C010C941C010C941C0158
S11300B00C941C010C941C010C941C010C941C0148
S11300C00C941C010C941C010C941C010C941C0138
S11300D00C941C010C941C010C941C010C941C0128
S11300E00C941C010C941C010C941C010C941C0118
S11300F00C941C010C941C010C941C010C941C0108
S11301000C941C010C941C010C941C010C941C01F7
S11301100C941C010C941C010C941C010C941C01E7
S11301200C941C010C941C010C941C010C941C01D7
S11301300C941C010C941C010C941C010C941C01C7
S11301400C941C010C941C010C941C010C941C01B7
S11301500C941C010C941C010C941C010C941C01A7
S11301600C941C010C941C010C941C010C941C0197
S11301700C941C010C941C010C941C010C941C0187
S11301800C941C010C941C010C941C010C941C0177
S11301900C941C010C941C010C941C010C941C0167
S11301A00C941C010C941C010C941C010C941C0157
S11301B00C941C010C941C010C941C010C941C0147
S11301C00C941C010C941C010C941C010C941C0137
S11301D00C941C010C941C010C941C010C941C0127
S11301E00C941C010C941C010C941C010C941C0117
S11301F00C941C010C941C010C941C0111241FBEB2
S1130200CFEFCDBFDFE3DEBF00E00CBF18BE19BEE9
S11302101ABE1BBE11E2A0E0B0E2E2E9FAE000E09F
S11302200BBF02C007900D92A434B107D9F71BBECF
S11302300E94D5020C9447050C94000082E0809340
S11302405000E0E5F0E0818181FFFDCF88ED84BFBF
S113025081E080934000089510920006E0E0F2E00F
S113026089E080838CE1818380E3828380E48383DB
S113027083E880A39AE091A380A781E281A70895EF
S1130280E0EAF9E089E8868380EF878388E1848364
S11302908BE085830895E0E6F6E088EF818385832B
S11302A084E08283E0ECF7E08AE08183868308952A
S11302B0E0EEF6E087E1808383E184838FEF80932F
S11302C02007E0E4F4E081E08083138A80E8828BF5
S11302D085E1808B0895E0E0F2E080A1806880A34E
S11302E083A180FFFDCFE0E0F2E081E0868384A17A
S11302F095A10895E0E0F2E080A5806880A783A539
S113030080FFFDCFE0E0F2E082E0868384A595A53E
S11303100895E0EAF9E0918195FFFDCF8093A0096B
S11303200895CF93DF93EC018881882331F02196DF
S11303300E94890189918111FBCFDF91CF910895AA
S1130340E0EAF9E081818823ECF78091A00908951F
S1130350809100800E9489010895CF93DF9300D09B
S11303601F92CDB7DEB719821A821B821C82898143
S11303709A81AB81BC81893C9105A105B105A0F4AA
S113038089819A81AB81BC810196A11DB11D8983AC
S11303909A83AB83BC8389819A81AB81BC81893C7C
S11303A09105A105B10560F32496CDBFDEBFDF91B1
S11303B0CF910895CF92DF92EF92FF920F931F9304
S11303C0CF93DF93CDB7DEB72797CDBFDEBF8C01C8
S11303D019821A821B821C821D821E82682F6295DA
S11303E0607F062E000C770B880B990B0E94250466
S11303F06B837C838D839E836B817C818D819E81C5
S113040020E030E048E452E40E947B036B837C8369
S11304108D839E836B817C818D819E812EE230E968
S113042040E25CE30E940F036B837C838D839E8395
S11304306B817C818D819E8120E030E0A9010E9446
S1130440B104882324F08BE20E94890103C08DE269
S11304500E9489016B817C818D819E810E94ED03C4
S113046069837A8389819A81805D0E9489018EE201
S11304700E948901CB80DC80ED80FE8089819A8195
S1130480BC01990F880B990B0E9425049B01AC01B8
S1130490C701B6010E940E0320E030E040E251E4BF
S11304A00E94B6046B837C838D839E836B817C81E5
S11304B08D819E810E94ED0369837A8389819A816B
S11304C0805D0E948901CB80DC80ED80FE80898183
S11304D09A81BC01990F880B990B0E9425049B01FA
S11304E0AC01C701B6010E940E0320E030E040E2F7
S11304F051E40E94B6046B837C838D839E836B815D
S11305007C818D819E810E94ED0369837A83898138
S11305109A81805D0E94890180E20E9489011F8284
S1130520C801959587958F8388E20E94890180E3AD
S11305300E94890188E70E9489018F81805D0E9461
S11305408901802F8F70805D0E94890189E20E9459
S1130550890180E20E9489012796CDBFDEBFDF9129
S1130560CF911F910F91FF90EF90DF90CF9008955E
S1130570823671F018F4813631F00895853669F0C9
S1130580863681F008950E946B010E94DA01089575
S11305900E947A010E94DA0108950E946B018093FF
S11305A0008008950E94A8010895CF93DF931F92BD
S11305B01F92CDB7DEB70E941E010E942C010E943B
S11305C058010E9440010E944B01789419821A82BA
S11305D089819A810C97C8F4E981FA81EE0FFF1F93
S11305E0E050F04E808191810E9491018CE090E274
S11305F00E9491010E94AD0189819A8101968983AB
S11306009A8389819A810C9738F38CE090E20E9456
S113061091010E94A0010E94B802D8CF5058BB2774
S1130620AA270E9426030C9477040E94690438F0D8
S11306300E94700420F039F49F3F19F426F40C94BE
S113064066040EF4E095E7FB0C946004E92F0E9425
S1130650880458F3BA17620773078407950720F0D4
S113066079F4A6F50C94AA040EF4E0950B2EBA2F97
S1130670A02D0B01B90190010C01CA01A0011124A4
S1130680FF27591B99F0593F50F4503E68F11A1650
S1130690F040A22F232F342F4427585FF3CF4695E1
S11306A037952795A795F0405395C9F77EF41F1603
S11306B0BA0B620B730B840BBAF09150A1F0FF0FCD
S11306C0BB1F661F771F881FC2F70EC0BA0F621FB9
S11306D0731F841F48F4879577956795B795F795A9
S11306E09E3F08F0B0CF9395880F08F09927EE0F3E
S11306F09795879508950E948F030C9477040E9420
S1130700700458F00E94690440F029F45F3F29F016
S11307100C94600451110C94AB040C9466040E9474
S1130720880468F39923B1F3552391F3951B550B72
S1130730BB27AA2762177307840738F09F5F5F4FB0
S1130740220F331F441FAA1FA9F335D00E2E3AF0EF
S1130750E0E832D091505040E695001CCAF72BD007
S1130760FE2F29D0660F771F881FBB1F2617370758
S11307704807AB07B0E809F0BB0B802DBF01FF278A
S113078093585F4F3AF09E3F510578F00C94600403
S11307900C94AB045F3FE4F3983ED4F386957795CD
S11307A06795B795F7959F5FC9F7880F911D969543
S11307B0879597F90895E1E0660F771F881FBB1F9F
S11307C0621773078407BA0720F0621B730B840B4C
S11307D0BA0BEE1F88F7E09508950E94F40368941D
S11307E0B1110C94AB0408950E94900488F09F57B3
S11307F098F0B92F9927B751B0F0E1F0660F771F41
S1130800881F991F1AF0BA95C9F714C0B13091F036
S11308100E94AA04B1E008950C94AA04672F782FCB
S11308208827B85F39F0B93FCCF3869577956795FB
S1130830B395D9F73EF490958095709561957F4F67
S11308408F4F9F4F0895E89409C097FB3EF490950D
S11308508095709561957F4F8F4F9F4F9923A9F095
S1130860F92F96E9BB279395F69587957795679524
S1130870B795F111F8CFFAF4BB0F11F460FF1BC068
S11308806F5F7F4F8F4F9F4F16C0882311F096E9FB
S113089011C0772321F09EE8872F762F05C06623A9
S11308A071F096E8862F70E060E02AF09A95660F62
S11308B0771F881FDAF7880F9695879597F908951B
S11308C097F99F6780E870E060E008959FEF80ECFF
S11308D0089500240A9416161706180609060895A2
S11308E000240A9412161306140605060895092E08
S11308F00394000C11F4882352F0BB0F40F4BF2B77
S113090011F460FF04C06F5F7F4F8F4F9F4F0895B6
S113091057FD9058440F551F59F05F3F71F04795AC
S1130920880F97FB991F61F09F3F79F08795089591
S1130930121613061406551FF2CF4695F1DF08C0B0
S1130940161617061806991FF1CF869571056105CD
S113095008940895E894BB2766277727CB0197F975
S113096008950E94230508F48FEF08950E94C90496
S11309700C9477040E94690438F00E94700420F0FB
S1130980952311F00C9460040C94660411240C94C7
S1130990AB040E94880470F3959FC1F3950F50E057
S11309A0551F629FF001729FBB27F00DB11D639F1D
S11309B0AA27F00DB11DAA1F649F6627B00DA11DC3
S11309C0661F829F2227B00DA11D621F739FB00D69
S11309D0A11D621F839FA00D611D221F749F3327D9
S11309E0A00D611D231F849F600D211D822F762F72
S11309F06A2F11249F5750409AF0F1F088234AF04F
S1130A00EE0FFF1FBB1F661F771F881F91505040BA
S1130A10A9F79E3F510580F00C9460040C94AB043C
S1130A205F3FE4F3983ED4F3869577956795B79541
S1130A30F795E7959F5FC1F7FE2B880F911D96955B
S1130A40879597F90895990F0008550FAA0BE0E8C8
S1130A50FEEF16161706E807F907C0F0121613067C
S1130A60E407F50798F0621B730B840B950B39F4BC
S1130A700A2661F0232B242B252B21F408950A2622
S1130A8009F4A140A6958FEF811D811D0895F89466
S1050A90FFCF92
S1130A920E204C208520B820D22015210A00413A8C
S1130AA220537461727420436F6E76657273696F3A
S1130AB26E206F662070686F746F2072657369733D
S1130AC2746F7220616E6420646973706C61792042
S1130AD26F6E207465726D696E616C00423A2053C8
S1130AE27461727420636F6E76657273696F6E20BF
S1130AF26F6E2044414420626F61726420616E64AF
S1130B0220646973706C6179206F6E207465726DF4
S1130B12696E616C00433A205475726E206F6E20C8
S1130B2254696D657220616E6420737461727420FD
S1130B32636F6E76657273696F6E2065766572791E
S1130B42207365636F6E6400443A205475726E209C
S1130B526F66662054696D65722F436F756E746596
S1130B627200453A20537461727420636F6E766525
S1130B727273696F6E20616E642077726974652086
S1130B82746869732076616C756520746F2065786A
S1130B927465726E616C205352414D20617420243D
S1130BA23830303000463A205265616420746865FA
S1130BB22065787465726E616C206D656D6F7279F3
S1130BC2206C6F636174696F6E2061742024383005
S1070BD230300000BB
S9030000FC
