S00D00004C616235652E737265636E
S11300000C94FE000C941C010C941C010C941C0117
S11300100C941C010C941C010C941C010C941C01E8
S11300200C941C010C941C010C941C010C941C01D8
S11300300C941C010C941C010C94FF010C941C01E5
S11300400C941C010C941C010C941C010C941C01B8
S11300500C941C010C941C010C941C010C941C01A8
S11300600C941C010C941C010C941C010C941C0198
S11300700C941C010C941C010C941C010C941C0188
S11300800C941C010C941C010C941C010C941C0178
S11300900C941C010C941C010C941C010C941C0168
S11300A00C941C010C941C010C941C010C941C0158
S11300B00C941C010C941C010C941C010C941C0148
S11300C00C941C010C941C010C941C010C941C0138
S11300D00C941C010C941C010C941C010C941C0128
S11300E00C941C010C941C010C941C010C941C0118
S11300F00C941C010C941C010C941C010C941C0108
S11301000C941C010C941C010C941C010C941C01F7
S11301100C941C010C941C010C941C010C9474018F
S11301200C9493010C941C010C941C010C941C0160
S11301300C941C010C941C010C941C010C941C01C7
S11301400C941C010C941C010C941C010C941C01B7
S11301500C941C010C941C010C941C010C941C01A7
S11301600C941C010C941C010C941C010C941C0197
S11301700C941C010C941C010C941C010C941C0187
S11301800C941C010C941C010C941C010C941C0177
S11301900C941C010C941C010C941C010C941C0167
S11301A00C941C010C941C010C941C010C941C0157
S11301B00C941C010C941C010C941C010C941C0147
S11301C00C941C010C941C010C941C010C941C0137
S11301D00C941C010C941C010C941C010C941C0127
S11301E00C941C010C941C010C941C010C941C0117
S11301F00C941C010C941C010C941C0111241FBEB2
S1130200CFEFCDBFDFE3DEBF00E00CBF18BE19BEE9
S11302101ABE1BBE11E2A0E0B0E2EEE8F5E000E099
S11302200BBF02C007900D92A434B107D9F71BBECF
S11302300E948C020C94C5020C94000082E080930E
S11302405000E0E5F0E0818181FFFDCF88ED84BFBF
S113025081E0809340000895E0E0F6E080818E7FA5
S11302608083E0E0F2E081E080839CE1918390E38D
S1130270928393E890A311A290A781A7808F118EF7
S113028096E092A39EE092A793E09093A2008683C7
S11302900895E0EAF9E089E8868380EF878388E1BE
S11302A084838BE085830895E0E6F6E088EF81831C
S11302B0858384E08283E0ECF7E08AE081838683AF
S11302C00895E0EEF6E087E1808383E184838FEF95
S11302D080932007E0E4F4E081E08083138A80E8DF
S11302E0828B85E1808B08951F920F920FB60F9237
S11302F0112408B60F9218BE0BB60F921BBE8F9333
S1130300EF93FF93E0E6F6E084818F7E8483FF9190
S1130310EF918F910F900BBE0F9008BE0F900FBE00
S11303200F901F9018951F920F920FB60F921124E1
S113033008B60F9218BE0BB60F921BBE8F93EF93A5
S1130340FF93E0E6F6E084818F7B8483FF91EF9155
S11303508F910F900BBE0F9008BE0F900FBE0F90A1
S11303601F901895E0E0F2E080A1806880A383A14B
S113037080FFFDCFE0E0F2E081E0868384A195A1D7
S11303800895E0E0F2E080A5806880A783A580FF5F
S1130390FDCFE0E0F2E081E0868384A595A5089591
S11303A0E0EAF9E0918195FFFDCF8093A0090895DB
S11303B0CF93DF93EC018881882331F021960E944A
S11303C0D00189918111FBCFDF91CF910895E0EAAB
S11303D0F9E081818823ECF78091A0090895E0E099
S11303E0F8E08FEF86A317A287E08083118282E072
S11303F0868383E08093A20081E0848708951F921E
S11304000F920FB60F92112408B60F9218BE09B6B8
S11304100F9219BE0BB60F921BBE2F933F934F93AF
S11304205F936F937F938F939F93AF93BF93EF9358
S1130430FF930E94B2010E94D801FF91EF91BF91F6
S1130440AF919F918F917F916F915F914F913F9168
S11304502F910F900BBE0F9009BE0F9008BE0F9006
S11304600FBE0F901F901895809100800E94D001BC
S11304700895CF93DF9300D01F92CDB7DEB71982D2
S11304801A821B821C8289819A81AB81BC81893C3E
S11304909105A105B105A0F489819A81AB81BC8144
S11304A00196A11DB11D89839A83AB83BC83898185
S11304B09A81AB81BC81893C9105A105B10560F3AA
S11304C02496CDBFDEBFDF91CF9108958336B1F07E
S11304D028F4813649F0823661F008958536A1F01A
S11304E080F08636B1F008950E94B2010E94D001D6
S11304F008950E94C1010E94D00108950E94EF0155
S113050008951092000808950E94B201809300801B
S113051008950E9434020895CF93DF931F921F928F
S1130520CDB7DEB70E941E010E942C010E9461011A
S11305300E9449010E945401789419821A82898187
S11305409A810C97C8F4E981FA81EE0FFF1FE050FD
S1130550F04E808191810E94D8018CE090E20E944B
S1130560D8010E94390289819A81019689839A83EC
S113057089819A810C9738F38CE090E20E94D8012B
S11105800E94E7010E946602D8CFF894FFCFD4
S113058E0E204C208520B820D22015210A00413A95
S113059E20537461727420436F6E76657273696F43
S11305AE6E206F662070686F746F20726573697346
S11305BE746F7220616E6420646973706C6179204B
S11305CE6F6E207465726D696E616C00423A2053D1
S11305DE7461727420636F6E76657273696F6E20C8
S11305EE6F6E2044414420626F61726420616E64B8
S11305FE20646973706C6179206F6E207465726DFE
S113060E696E616C00433A205475726E206F6E20D1
S113061E54696D657220616E642073746172742006
S113062E636F6E76657273696F6E20657665727927
S113063E207365636F6E6400443A205475726E20A5
S113064E6F66662054696D65722F436F756E74659F
S113065E7200453A20537461727420636F6E76652E
S113066E7273696F6E20616E64207772697465208F
S113067E746869732076616C756520746F20657873
S113068E7465726E616C205352414D206174202446
S113069E3830303000463A20526561642074686503
S11306AE2065787465726E616C206D656D6F7279FC
S11306BE206C6F636174696F6E206174202438300E
S10706CE30300000C4
S9030000FC
