:020000020000FC
:02000000FFC13E
:040108000C947B02D6
:020038006DC297
:1004000007D016D024D048D031E0789457D0FECF12
:1004100000E7009361060FEF009364060FEF00936F
:1004200041060FEF0093440600E000930106089593
:100430000F9301E00093090601E000930A0601E032
:100440000093100601E00093A2000F9108950F930E
:1004500002E00093500045D008ED0093340001E025
:10046000009340000F9108950F930FE0009326082A
:100470000FEA0093270807E00093000800E00093CC
:1004800001080F9108950F9301E00093060801E021
:100490000093A2000F9108950F930FEF0093260988
:1004A0000FEF0093270901E00093000903E7009391
:1004B000010907E000936E060F91089505E7009388
:1004C000280905E70093290903ED00932A090FEF96
:1004D00000932B0905E600932C0905E600932D09EE
:1004E00008950F931F9303E0109151001017C9F75F
:1004F0001F910F9108950F9300913F000F93B4DF68
:10050000C2DF01E000930C080F9100933F000F91B0
:10051000189576CF0F9300913F000F933F3FC9F39B
:100520000091080600FF330F309530934406309554
:1005300001E000930C060F9100933F000F91189576
:00000001FF
