:100000000C94FE000C9424010C9424010C94240103
:100010000C9424010C9424010C9424010C942401CC
:100020000C9424010C9424010C9424010C942401BC
:100030000C9424010C9424010C9424010C942401AC
:100040000C9424010C9424010C9424010C9424019C
:100050000C9424010C9424010C9424010C9424018C
:100060000C9424010C9424010C9424010C9424017C
:100070000C9424010C9424010C9424010C9424016C
:100080000C9424010C9424010C9424010C9424015C
:100090000C9424010C9424010C9424010C9424014C
:1000A0000C9424010C9424010C9424010C9424013C
:1000B0000C9424010C9424010C9424010C945601FA
:1000C0000C9424010C9424010C9424010C9424011C
:1000D0000C9424010C9424010C9424010C9424010C
:1000E0000C9424010C9424010C9424010C942401FC
:1000F0000C9424010C9424010C9424010C942401EC
:100100000C9424010C9424010C9424010C942401DB
:100110000C9424010C9424010C9424010C942401CB
:100120000C9424010C9424010C9424010C942401BB
:100130000C9424010C9424010C9424010C942401AB
:100140000C9424010C9424010C9424010C9424019B
:100150000C9424010C9424010C9424010C9424018B
:100160000C9424010C9424010C9424010C9424017B
:100170000C9424010C9424010C9424010C9424016B
:100180000C9424010C9424010C9424010C9424015B
:100190000C9424010C9424010C9424010C9424014B
:1001A0000C9424010C9424010C9424010C9424013B
:1001B0000C9424010C9424010C9424010C9424012B
:1001C0000C9424010C9424010C9424010C9424011B
:1001D0000C9424010C9424010C9424010C9424010B
:1001E0000C9424010C9424010C9424010C942401FB
:1001F0000C9424010C9424010C94240111241FBE9E
:10020000CFEFCDBFDFE3DEBF00E00CBF18BE19BEED
:100210001ABE1BBE10E2A0E0B0E2EEEFF2E000E09A
:100220000BBF02C007900D92AA3CB107D9F71BBEC5
:1002300020E2AAECB0E201C01D92AC3CB207E1F7AB
:100240000E9472010C947D010C940000E0E0FAE041
:1002500083E490E086A397A381E0808310A211A29B
:1002600082E086830895E0E0F1E080E8808395EA0B
:10027000908B99E5928B838B88EC90E0848B958BA7
:1002800080E090E2808F918F128E88E1848F83E0EE
:10029000858F168E089584E080930006E0E0F3E0F9
:1002A00085E08083118288E1828308951F920F92F6
:1002B0000FB60F92112408B60F9218BE8F939F931A
:1002C0008091CA209091CB2001968093CA20909370
:1002D000CB209F918F910F9008BE0F900FBE0F9073
:1002E0001F9018950E9426010E944B010E94330125
:0E02F00082E08093A2007894FFCFF894FFCFB5
:1002FE000008800800097F09FD09780AF10A670BDA
:10030E00DA0B490CB30C190D790DD40D290E780E9C
:10031E00C00E020F3C0F6F0F9B0FBF0FDB0FEF0FC7
:10032E00FB0FFF0FFB0FEF0FDB0FBF0F9B0F6F0FBF
:10033E003C0F020FC00E780E290ED40D790D190D3B
:10034E00B30C490CDA0B670BF10A780AFD097F0929
:10035E000009800800087F07FF0680060206870551
:10036E000E0598042504B6034C03E60286022B0202
:10037E00D60187013F01FD00C300900064004000DC
:10038E0024001000040000000400100024004000AF
:10039E0064009000C300FD003F018701D6012B02CF
:1003AE008602E6024C03B603250498040E05870563
:0A03BE0002068006FF067F07000814
:00000001FF
