:100000000C94FE000C940E010C940E010C940E0145
:100010000C940E010C940E010C940E010C940E0124
:100020000C940E010C940E010C940E010C940E0114
:100030000C940E010C940E010C940E010C940E0104
:100040000C940E010C940E010C940E010C940E01F4
:100050000C940E010C940E010C940E010C940E01E4
:100060000C940E010C940E010C940E010C940E01D4
:100070000C940E010C940E010C940E010C940E01C4
:100080000C940E010C940E010C940E010C940E01B4
:100090000C940E010C940E010C940E010C940E01A4
:1000A0000C940E010C940E010C940E010C940E0194
:1000B0000C940E010C940E010C940E010C940E0184
:1000C0000C940E010C940E010C940E010C940E0174
:1000D0000C940E010C940E010C940E010C940E0164
:1000E0000C940E010C940E010C940E010C940E0154
:1000F0000C940E010C940E010C940E010C940E0144
:100100000C940E010C940E010C940E010C940E0133
:100110000C940E010C940E010C940E010C940E0123
:100120000C940E010C940E010C940E010C940E0113
:100130000C940E010C940E010C940E010C940E0103
:100140000C940E010C940E010C940E010C940E01F3
:100150000C940E010C940E010C940E010C940E01E3
:100160000C940E010C940E010C940E010C940E01D3
:100170000C940E010C940E010C940E010C940E01C3
:100180000C940E010C940E010C940E010C940E01B3
:100190000C940E010C940E010C940E010C940E01A3
:1001A0000C940E010C940E010C940E010C940E0193
:1001B0000C940E010C940E010C940E010C940E0183
:1001C0000C940E010C940E010C940E010C940E0173
:1001D0000C940E010C940E010C940E010C940E0163
:1001E0000C940E010C940E010C940E010C940E0153
:1001F0000C940E010C940E010C940E0111241FBEE0
:10020000CFEFCDBFDFE3DEBF00E00CBF18BE19BEED
:100210001ABE1BBE0E945D020C947A040C9400006E
:1002200082E080935000E0E5F0E0818181FFFDCF26
:1002300088ED84BF81E0809340000895E0EAF9E012
:1002400089E8868380EF878388E184838BE08583D8
:100250000895E0E6F6E088EF8183858384E0828379
:10026000E0ECF7E08AE0818386830895109200062F
:10027000E0E0F2E081E080839CE0918390E3928370
:1002800093E890A39AE091A386830895E0E0F2E0DA
:1002900080A1806880A383A180FFFDCFE0E0F2E031
:1002A00081E0868384A195A10895E0EAF9E0918137
:1002B00095FFFDCF8093A0090895CF93DF9300D0E1
:1002C0001F92CDB7DEB719821A821B821C828981E8
:1002D0009A81AB81BC8181389448AE41B105A0F4CC
:1002E00089819A81AB81BC810196A11DB11D898351
:1002F0009A83AB83BC8389819A81AB81BC8181382D
:100300009448AE41B10560F32496CDBFDEBFDF91C6
:10031000CF910895CF92DF92EF92FF92CF93DF9328
:10032000CDB7DEB72897CDBFDEBF19821A821B82F8
:100330001C821D821E821F820E944601880F991F07
:10034000880F991F898389818DE20E9455018981D7
:100350008F7789836981062E000C770B880B990BA8
:100360000E9481036C837D838E839F836C817D815A
:100370008E819F8120E030E048E452E40E94D70261
:100380006C837D838E839F836C817D818E819F8131
:100390002EE230E940E25CE30E946B026C837D83D5
:1003A0008E839F836C817D818E819F810E94490312
:1003B0006A837B838A819B81805D0E9455018EE2E6
:1003C0000E945501CC80DD80EE80FF808A819B8178
:1003D000BC01990F880B990B0E9481039B01AC0112
:1003E000C701B6010E946A0220E030E040E251E419
:1003F0000E940D046C837D838E839F836C817D813D
:100400008E819F810E9449036A837B838A819B81BD
:10041000805D0E945501CC80DD80EE80FF808A8166
:100420009B81BC01990F880B990B0E9481039B0152
:10043000AC01C701B6010E946A0220E030E040E250
:1004400051E40E940D046C837D838E839F836C81B5
:100450007D818E819F810E9449036A837B838A818B
:100460009B81805D0E94550180E20E9455011886A3
:1004700089818595888788E20E94550180E30E94E2
:10048000550188E70E9455018885805D0E945501CD
:1004900089818F70805D0E94550189E20E9455011B
:1004A00080E20E9455012896CDBFDEBFDF91CF913B
:1004B000FF90EF90DF90CF9008950E9410010E946E
:1004C00036010E941E010E9429010E948A010E9499
:1004D0005D01FBCF5058BB27AA270E9482020C94D3
:1004E000D3030E94C50338F00E94CC0320F039F4F6
:1004F0009F3F19F426F40C94C2030EF4E095E7FB39
:100500000C94BC03E92F0E94E40358F3BA17620766
:1005100073078407950720F079F4A6F50C94060478
:100520000EF4E0950B2EBA2FA02D0B01B90190010E
:100530000C01CA01A0011124FF27591B99F0593F52
:1005400050F4503E68F11A16F040A22F232F342F9A
:100550004427585FF3CF469537952795A795F040E8
:100560005395C9F77EF41F16BA0B620B730B840BFD
:10057000BAF09150A1F0FF0FBB1F661F771F881FB5
:10058000C2F70EC0BA0F621F731F841F48F487950D
:1005900077956795B795F7959E3F08F0B0CF9395FF
:1005A000880F08F09927EE0F9795879508950E9478
:1005B000EB020C94D3030E94CC0358F00E94C503B5
:1005C00040F029F45F3F29F00C94BC0351110C94C6
:1005D00007040C94C2030E94E40368F39923B1F367
:1005E000552391F3951B550BBB27AA276217730759
:1005F000840738F09F5F5F4F220F331F441FAA1FED
:10060000A9F335D00E2E3AF0E0E832D091505040A8
:10061000E695001CCAF72BD0FE2F29D0660F771F56
:10062000881FBB1F261737074807AB07B0E809F03C
:10063000BB0B802DBF01FF2793585F4F3AF09E3FC1
:10064000510578F00C94BC030C9407045F3FE4F36D
:10065000983ED4F3869577956795B795F7959F5F04
:10066000C9F7880F911D9695879597F90895E1E050
:10067000660F771F881FBB1F621773078407BA07AF
:1006800020F0621B730B840BBA0BEE1F88F7E0950A
:1006900008950E9450036894B1110C9407040895C2
:1006A0000E94EC0388F09F5798F0B92F9927B75113
:1006B000B0F0E1F0660F771F881F991F1AF0BA9506
:1006C000C9F714C0B13091F00E940604B1E008955A
:1006D0000C940604672F782F8827B85F39F0B93F4C
:1006E000CCF3869577956795B395D9F73EF49095B9
:1006F0008095709561957F4F8F4F9F4F0895E89437
:1007000009C097FB3EF490958095709561957F4F59
:100710008F4F9F4F9923A9F0F92F96E9BB27939507
:10072000F695879577956795B795F111F8CFFAF417
:10073000BB0F11F460FF1BC06F5F7F4F8F4F9F4F48
:1007400016C0882311F096E911C0772321F09EE8A6
:10075000872F762F05C0662371F096E8862F70E00C
:1007600060E02AF09A95660F771F881FDAF7880FE6
:100770009695879597F9089597F99F6780E870E0B7
:1007800060E008959FEF80EC089500240A94161607
:10079000170618060906089500240A94121613066F
:1007A000140605060895092E0394000C11F48823FD
:1007B00052F0BB0F40F4BF2B11F460FF04C06F5F19
:1007C0007F4F8F4F9F4F089557FD9058440F551FEF
:1007D00059F05F3F71F04795880F97FB991F61F0C3
:1007E0009F3F79F087950895121613061406551F3A
:1007F000F2CF4695F1DF08C0161617061806991FA6
:10080000F1CF86957105610508940895E894BB279A
:1008100066277727CB0197F908950E9420040C944E
:10082000D3030E94C50338F00E94CC0320F0952327
:1008300011F00C94BC030C94C20311240C94070413
:100840000E94E40370F3959FC1F3950F50E0551F8C
:10085000629FF001729FBB27F00DB11D639FAA2715
:10086000F00DB11DAA1F649F6627B00DA11D661F64
:10087000829F2227B00DA11D621F739FB00DA11D85
:10088000621F839FA00D611D221F749F3327A00D3F
:10089000611D231F849F600D211D822F762F6A2FDB
:1008A00011249F5750409AF0F1F088234AF0EE0F40
:1008B000FF1FBB1F661F771F881F91505040A9F76D
:1008C0009E3F510580F00C94BC030C9407045F3FDD
:1008D000E4F3983ED4F3869577956795B795F795A9
:1008E000E7959F5FC1F7FE2B880F911D9695879521
:0808F00097F90895F894FFCF79
:00000001FF
