:100000000C94FE000C941C010C941C010C941C011B
:100010000C941C010C941C010C941C010C941C01EC
:100020000C941C010C941C010C941C010C941C01DC
:100030000C941C010C941C010C941C010C941C01CC
:100040000C941C010C941C010C941C010C941C01BC
:100050000C941C010C941C010C941C010C941C01AC
:100060000C941C010C941C010C941C010C941C019C
:100070000C941C010C941C010C941C010C941C018C
:100080000C941C010C941C010C941C010C941C017C
:100090000C941C010C941C010C941C010C941C016C
:1000A0000C941C010C941C010C941C010C941C015C
:1000B0000C941C010C941C010C941C010C941C014C
:1000C0000C941C010C941C010C941C010C941C013C
:1000D0000C941C010C941C010C941C010C941C012C
:1000E0000C941C010C941C010C941C010C941C011C
:1000F0000C941C010C941C010C941C010C941C010C
:100100000C941C010C941C010C941C010C941C01FB
:100110000C941C010C941C010C941C010C941C01EB
:100120000C941C010C941C010C941C010C941C01DB
:100130000C941C010C941C010C941C010C941C01CB
:100140000C941C010C941C010C941C010C941C01BB
:100150000C941C010C941C010C941C010C941C01AB
:100160000C941C010C941C010C941C010C941C019B
:100170000C941C010C941C010C941C010C941C018B
:100180000C941C010C941C010C941C010C941C017B
:100190000C941C010C941C010C941C010C941C016B
:1001A0000C941C010C941C010C941C010C941C015B
:1001B0000C941C010C941C010C941C010C941C014B
:1001C0000C941C010C941C010C941C010C941C013B
:1001D0000C941C010C941C010C941C010C941C012B
:1001E0000C941C010C941C010C941C010C941C011B
:1001F0000C941C010C941C010C941C0111241FBEB6
:10020000CFEFCDBFDFE3DEBF00E00CBF18BE19BEED
:100210001ABE1BBE1DE3A0E0B0E2ECE4F3E000E098
:100220000BBF02C007900D92A237B107D9F71BBED2
:100230000E9499010C94A4010C940000E0E0F2E00B
:1002400081E080839CE1918390E3928393E890A383
:1002500011A297E090934402809300060895E0EA8B
:10026000F9E088E184838BE3858387E8868380EEE9
:1002700087830895E0E6F6E088E08183858384E063
:100280008283E0ECF7E08AE0818386830895E0E0F2
:10029000F2E084A195A124A135A1AC01440F551F22
:1002A000453F514020F02AEF30E08AEF90E0880F80
:1002B000991F880F991FFC01E050F04E8081A0EA41
:1002C000B9E08C93220F331F220F331FF901E65838
:1002D000F44C80818C930895CF93DF9300D01F92CC
:1002E000CDB7DEB719821A821B821C8289819A815E
:1002F000AB81BC8181389448AE41B105A0F48981BD
:100300009A81AB81BC810196A11DB11D89839A831D
:10031000AB83BC8389819A81AB81BC81813894484D
:10032000AE41B10560F32496CDBFDEBFDF91CF9122
:1003300008950E941E010E942F010E943A010E940E
:0C03400047010E946C01FBCFF894FFCF36
:10034C00D22BDA2BE22BEA2BF22BFA2B022C0A2CD7
:10035C00122C1A2C222C2A2C322C3A2C422C4A2CC1
:10036C00522C5A2C622C6A2C722C7A2C822C8A2CB1
:10037C00922C9A2CA22CAA2CB22CBA2CC22CCA2CA1
:10038C00D22CDA2CE22CEA2CF22CFA2C022D0A2D8F
:10039C00122D1A2D222D2A2D322D3A2D422D4A2D79
:1003AC00522D5A2D622D6A2D722D7A2D822D8A2D69
:1003BC00922D9A2DA22DAA2DB22DBA2DC22DC22D61
:1003CC00CA2DD22DDA2DE22DEA2DF22DFA2D022E88
:1003DC000A2E122E1A2E222E2A2E322E3A2E422E71
:1003EC004A2E522E5A2E622E6A2E722E7A2E822E61
:1003FC008A2E922E9A2EA22EAA2EB22EBA2EC22E51
:10040C00CA2ED22EDA2EE22EEA2EF22EFA2E022F3F
:10041C000A2F122F1A2F222F2A2F322F3A2F422F28
:10042C004A2F522F5A2F622F6A2F722F7A2F822F18
:10043C008A2F922F9A2FA22FAA2FB22FBA2FC22F08
:10044C00CA2FD22FDA2FE22FEA2FF22FFA2F0230F7
:10045C000A3012301A3022302A3032303A304230E0
:10046C004A3052305A3062306A3072307A308230D0
:10047C008A3092309A30A230AA30B230BA30C230C0
:10048C00CA30D230DA30E230EA30F230FA300231AF
:10049C000A3112311A3122312A3132313A31423198
:1004AC004A3152315A3162316A3172317A31823188
:1004BC008A3192319A31A231AA31B231B231BA3188
:1004CC00C231CA31D231DA31E231EA31F231FA31A8
:1004DC0002320A3212321A3222322A3232323A3290
:1004EC0042324A3252325A3262326A3272327A3280
:1004FC0082328A3292329A32A232AA32B232BA3270
:10050C00C232CA32D232DA32E232EA32F232FA325F
:10051C0002330A3312331A3322332A3332333A3347
:10052C0042334A3352335A3362336A3372337A3337
:10053C0082338A3392339A33A233AA33B233BA3327
:10054C00C233CA33D233DA33E233EA33F233FA3317
:10055C0002340A3412341A3422342A3432343A34FF
:10056C0042344A3452345A3462346A3472347A34EF
:10057C0082348A3492349A34A234AA34B234BA34DF
:10058C00C234CA34D234DA34E234EA34F234FA34CF
:10059C0002350A3512351A3522352A3532353A35B7
:1005AC0042354A3552355A3562356A3572357A35A7
:1005BC0082358A35923592359A35A235AA35B235BF
:1005CC00BA35C235CA35D235DA35E235EA35F235C7
:1005DC00FA3502360A3612361A3622362A363236B0
:1005EC003A3642364A3652365A3662366A3672369F
:1005FC007A3682368A3692369A36A236AA36B2368F
:10060C00BA36C236CA36D236DA36E236EA36F2367E
:10061C00FA3602370A3712371A3722372A37323767
:10062C003A3742374A3752375A3762376A37723756
:10063C007A3782378A3792379A37A237AA37B23746
:10064C00BA37C237CA37D237DA37E237EA37F23736
:10065C00FA3702380A3812381A3822382A3832381F
:10066C003A3842384A3852385A3862386A3872380E
:10067C007A3882388A3892389A38A238AA38B238FE
:10068C00BA38C238CA38D238DA38E238EA38F238EE
:10069C00FA3802390A3912391A3922392A393239D7
:1006AC003A3942394A3952395A3962396A397239C6
:1006BC007A39823982398A3992399A39A239AA39E6
:1006CC00B239BA39C239CA39D239DA39E239EA39E6
:1006DC00F239FA39023A0A3A123A1A3A223A2A3AD0
:1006EC00323A3A3A423A4A3A523A5A3A623A6A3ABE
:1006FC00723A7A3A823A8A3A923A9A3AA23AAA3AAE
:10070C00B23ABA3AC23ACA3AD23ADA3AE23AEA3A9D
:10071C00F23AFA3A023B0A3B123B1A3B223B2A3B87
:10072C00323B3A3B423B4A3B523B5A3B623B6A3B75
:10073C00723B28307830312920002830783032292B
:10074C0020002830783033292000283078303429A4
:10075C002000283078303529200028307830362990
:10076C00200028307830372920002830783038297C
:10077C002000283078303929200028307830412961
:10078C002000283078304229200028307830432946
:10079C002000283078304429200028307830452932
:1007AC002000283078304629200028307831302934
:1007BC002000283078313129200028307831322936
:1007CC002000283078313329200028307831342922
:1007DC00200028307831352920002830783136290E
:1007EC0020002830783137292000283078313829FA
:1007FC0020002830783139292000283078314129DF
:10080C0020002830783142292000283078314329C3
:10081C0020002830783144292000283078314529AF
:10082C0020002830783146292000283078323029B1
:10083C0020002830783231292000283078323229B3
:10084C00200028307832332920002830783234299F
:10085C00200028307832352920002830783236298B
:10086C002000283078323729200028307832382977
:10087C00200028307832392920002830783241295C
:10088C002000283078324229200028307832432941
:10089C00200028307832442920002830783245292D
:1008AC00200028307832462920002830783330292F
:1008BC002000283078333129200028307833322931
:1008CC00200028307833332920002830783334291D
:1008DC002000283078333529200028307833362909
:1008EC0020002830783337292000283078333829F5
:1008FC0020002830783339292000283078334129DA
:10090C0020002830783342292000283078334329BE
:10091C0020002830783344292000283078334529AA
:10092C0020002830783346292000283078343029AC
:10093C0020002830783431292000283078343229AE
:10094C00200028307834332920002830783434299A
:10095C002000283078343529200028307834362986
:10096C002000283078343729200028307834382972
:10097C002000283078343929200028307834412957
:10098C00200028307834422920002830783443293C
:10099C002000283078344429200028307834452928
:1009AC00200028307834462920002830783530292A
:1009BC00200028307835312920002830783532292C
:1009CC002000283078353329200028307835342918
:1009DC002000283078353529200028307835362904
:1009EC0020002830783537292000283078353829F0
:1009FC0020002830783539292000283078354129D5
:100A0C0020002830783542292000283078354329B9
:100A1C0020002830783544292000283078354529A5
:100A2C0020002830783546292000283078363029A7
:100A3C0020002830783631292000283078363229A9
:100A4C002000283078363329200028307836342995
:100A5C002000283078363529200028307836362981
:100A6C00200028307836372920002830783638296D
:100A7C002000283078363929200028307836412952
:100A8C002000283078364229200028307836432937
:100A9C002000283078364429200028307836452923
:100AAC002000283078364629200028307837302925
:100ABC002000283078373129200028307837322927
:100ACC002000283078373329200028307837342913
:100ADC0020002830783735292000283078373629FF
:100AEC0020002830783737292000283078373829EB
:100AFC0020002830783739292000283078374129D0
:100B0C0020002830783742292000283078374329B4
:100B1C0020002830783744292000283078374529A0
:100B2C0020002830783746292000283078383029A2
:100B3C0020002830783831292000283078383229A4
:100B4C002000283078383329200028307838342990
:100B5C00200028307838352920002830783836297C
:100B6C002000283078383729200028307838382968
:100B7C00200028307838392920002830783841294D
:100B8C002000283078384229200028307838432932
:100B9C00200028307838442920002830783845291E
:100BAC002000283078384629200028307839302920
:100BBC002000283078393129200028307839322922
:100BCC00200028307839332920002830783934290E
:100BDC0020002830783935292000283078393629FA
:100BEC0020002830783937292000283078393829E6
:100BFC0020002830783939292000283078394129CB
:100C0C0020002830783942292000283078394329AF
:100C1C00200028307839442920002830783945299B
:100C2C002000283078394629200028307841302996
:100C3C002000283078413129200028307841322991
:100C4C00200028307841332920002830784134297D
:100C5C002000283078413529200028307841362969
:100C6C002000283078413729200028307841382955
:100C7C00200028307841392920002830784141293A
:100C8C00200028307841422920002830784143291F
:100C9C00200028307841442920002830784145290B
:100CAC00200028307841462920002830784230290D
:100CBC00200028307842312920002830784232290F
:100CCC0020002830784233292000283078423429FB
:100CDC0020002830784235292000283078423629E7
:100CEC0020002830784237292000283078423829D3
:100CFC0020002830784239292000283078424129B8
:100D0C00200028307842422920002830784243299C
:100D1C002000283078424429200028307842452988
:100D2C00200028307842462920002830784330298A
:100D3C00200028307843312920002830784332298C
:100D4C002000283078433329200028307843342978
:100D5C002000283078433529200028307843362964
:100D6C002000283078433729200028307843382950
:100D7C002000283078433929200028307843412935
:100D8C00200028307843422920002830784343291A
:100D9C002000283078434429200028307843452906
:100DAC002000283078434629200028307844302908
:100DBC00200028307844312920002830784432290A
:100DCC0020002830784433292000283078443429F6
:100DDC0020002830784435292000283078443629E2
:100DEC0020002830784437292000283078443829CE
:100DFC0020002830784439292000283078444129B3
:100E0C002000283078444229200028307844432997
:100E1C002000283078444429200028307844452983
:100E2C002000283078444629200028307845302985
:100E3C002000283078453129200028307845322987
:100E4C002000283078453329200028307845342973
:100E5C00200028307845352920002830784536295F
:100E6C00200028307845372920002830784538294B
:100E7C002000283078453929200028307845412930
:100E8C002000283078454229200028307845432915
:100E9C002000283078454429200028307845452901
:100EAC002000283078454629200028307846302903
:100EBC002000283078463129200028307846322905
:100ECC0020002830784633292000283078463429F1
:100EDC0020002830784635292000283078463629DD
:100EEC0020002830784637292000283078463829C9
:100EFC0020002830784639292000283078464129AE
:100F0C002000283078464229200028307846432992
:100F1C002000302E303020562000302E303120561C
:100F2C002000302E303220562000302E3033205608
:100F3C002000302E303420562000302E30352056F4
:100F4C002000302E303620562000302E30372056E0
:100F5C002000302E303820562000302E30392056CC
:100F6C002000302E313020562000302E31312056CA
:100F7C002000302E313220562000302E31332056B6
:100F8C002000302E313420562000302E31352056A2
:100F9C002000302E313620562000302E313720568E
:100FAC002000302E313820562000302E313920567A
:100FBC002000302E323020562000302E3231205678
:100FCC002000302E323220562000302E3233205664
:100FDC002000302E323420562000302E3235205650
:100FEC002000302E323620562000302E323720563C
:100FFC002000302E323820562000302E3239205628
:10100C002000302E333020562000302E3331205625
:10101C002000302E333220562000302E3333205611
:10102C002000302E333420562000302E33352056FD
:10103C002000302E333620562000302E33372056E9
:10104C002000302E333820562000302E33392056D5
:10105C002000302E343020562000302E34312056D3
:10106C002000302E343220562000302E34332056BF
:10107C002000302E343420562000302E34352056AB
:10108C002000302E343620562000302E3437205697
:10109C002000302E343820562000302E3439205683
:1010AC002000302E353020562000302E3531205681
:1010BC002000302E353220562000302E353320566D
:1010CC002000302E353420562000302E3535205659
:1010DC002000302E353620562000302E3537205645
:1010EC002000302E353820562000302E3539205631
:1010FC002000302E363020562000302E363120562F
:10110C002000302E363220562000302E363320561A
:10111C002000302E363420562000302E3635205606
:10112C002000302E363620562000302E36372056F2
:10113C002000302E363820562000302E36392056DE
:10114C002000302E373020562000302E37312056DC
:10115C002000302E373220562000302E37332056C8
:10116C002000302E373420562000302E37352056B4
:10117C002000302E373620562000302E37372056A0
:10118C002000302E373820562000302E373920568C
:10119C002000302E383020562000302E383120568A
:1011AC002000302E383220562000302E3833205676
:1011BC002000302E383420562000302E3835205662
:1011CC002000302E383620562000302E383720564E
:1011DC002000302E383820562000302E383920563A
:1011EC002000302E393020562000302E3931205638
:1011FC002000302E393220562000302E3933205624
:10120C002000302E393420562000302E393520560F
:10121C002000302E393620562000302E39372056FB
:10122C002000302E393820562000302E39392056E7
:10123C002000312E303020562000312E30312056F7
:10124C002000312E303220562000312E30332056E3
:10125C002000312E303420562000312E30352056CF
:10126C002000312E303620562000312E30372056BB
:10127C002000312E303820562000312E30392056A7
:10128C002000312E313020562000312E31312056A5
:10129C002000312E313220562000312E3133205691
:1012AC002000312E313420562000312E313520567D
:1012BC002000312E313620562000312E3137205669
:1012CC002000312E313820562000312E3139205655
:1012DC002000312E323020562000312E3231205653
:1012EC002000312E323220562000312E323320563F
:1012FC002000312E323420562000312E323520562B
:10130C002000312E323620562000312E3237205616
:10131C002000312E323820562000312E3239205602
:10132C002000312E333020562000312E3331205600
:10133C002000312E333220562000312E33332056EC
:10134C002000312E333420562000312E33352056D8
:10135C002000312E333620562000312E33372056C4
:10136C002000312E333820562000312E33392056B0
:10137C002000312E343020562000312E34312056AE
:10138C002000312E343220562000312E343320569A
:10139C002000312E343420562000312E3435205686
:1013AC002000312E343620562000312E3437205672
:1013BC002000312E343820562000312E343920565E
:1013CC002000312E353020562000312E353120565C
:1013DC002000312E353220562000312E3533205648
:1013EC002000312E353420562000312E3535205634
:1013FC002000312E353620562000312E3537205620
:10140C002000312E353820562000312E353920560B
:10141C002000312E363020562000312E3631205609
:10142C002000312E363220562000312E36332056F5
:10143C002000312E363420562000312E36352056E1
:10144C002000312E363620562000312E36372056CD
:10145C002000312E363820562000312E36392056B9
:10146C002000312E373020562000312E37312056B7
:10147C002000312E373220562000312E37332056A3
:10148C002000312E373420562000312E373520568F
:10149C002000312E373620562000312E373720567B
:1014AC002000312E373820562000312E3739205667
:1014BC002000312E383020562000312E3831205665
:1014CC002000312E383220562000312E3833205651
:1014DC002000312E383420562000312E383520563D
:1014EC002000312E383620562000312E3837205629
:1014FC002000312E383820562000312E3839205615
:10150C002000312E393020562000312E3931205612
:10151C002000312E393220562000312E39332056FE
:10152C002000312E393420562000312E39352056EA
:10153C002000312E393620562000312E39372056D6
:10154C002000312E393820562000312E39392056C2
:10155C002000322E303020562000322E30312056D2
:10156C002000322E303220562000322E30332056BE
:10157C002000322E303420562000322E30352056AA
:10158C002000322E303620562000322E3037205696
:10159C002000322E303820562000322E3039205682
:1015AC002000322E313020562000322E3131205680
:1015BC002000322E313220562000322E313320566C
:1015CC002000322E313420562000322E3135205658
:1015DC002000322E313620562000322E3137205644
:1015EC002000322E313820562000322E3139205630
:1015FC002000322E323020562000322E323120562E
:10160C002000322E323220562000322E3233205619
:10161C002000322E323420562000322E3235205605
:10162C002000322E323620562000322E32372056F1
:10163C002000322E323820562000322E32392056DD
:10164C002000322E333020562000322E33312056DB
:10165C002000322E333220562000322E33332056C7
:10166C002000322E333420562000322E33352056B3
:10167C002000322E333620562000322E333720569F
:10168C002000322E333820562000322E333920568B
:10169C002000322E343020562000322E3431205689
:1016AC002000322E343220562000322E3433205675
:1016BC002000322E343420562000322E3435205661
:1016CC002000322E343620562000322E343720564D
:1016DC002000322E343820562000322E3439205639
:1016EC002000322E353020562000322E3531205637
:1016FC002000322E353220562000322E3533205623
:10170C002000322E353420562000322E353520560E
:10171C002000322E353620562000322E35372056FA
:10172C002000322E353820562000322E35392056E6
:10173C002000322E363020562000322E36312056E4
:10174C002000322E363220562000322E36332056D0
:10175C002000322E363420562000322E36352056BC
:10176C002000322E363620562000322E36372056A8
:10177C002000322E363820562000322E3639205694
:10178C002000322E373020562000322E3731205692
:10179C002000322E373220562000322E373320567E
:1017AC002000322E373420562000322E373520566A
:1017BC002000322E373620562000322E3737205656
:1017CC002000322E373820562000322E3739205642
:1017DC002000322E383020562000322E3831205640
:1017EC002000322E383220562000322E383320562C
:1017FC002000322E383420562000322E3835205618
:10180C002000322E383620562000322E3837205603
:10181C002000322E383820562000322E38392056EF
:10182C002000322E393020562000322E39312056ED
:10183C002000322E393220562000322E39332056D9
:10184C002000322E393420562000322E39352056C5
:10185C002000322E393620562000322E39372056B1
:10186C002000322E393820562000322E393920569D
:10187C002000332E303020562000332E30312056AD
:10188C002000332E303220562000332E3033205699
:10189C002000332E303420562000332E3035205685
:1018AC002000332E303620562000332E3037205671
:1018BC002000332E303820562000332E303920565D
:1018CC002000332E313020562000332E313120565B
:1018DC002000332E313220562000332E3133205647
:1018EC002000332E313420562000332E3135205633
:1018FC002000332E313620562000332E313720561F
:10190C002000332E313820562000332E313920560A
:10191C002000332E323020562000332E3231205608
:10192C002000332E323220562000332E32332056F4
:10193C002000332E323420562000332E32352056E0
:10194C002000332E323620562000332E32372056CC
:10195C002000332E323820562000332E32392056B8
:10196C002000332E333020562000332E33312056B6
:10197C002000332E333220562000332E33332056A2
:10198C002000332E333420562000332E333520568E
:10199C002000332E333620562000332E333720567A
:1019AC002000332E333820562000332E3339205666
:1019BC002000332E343020562000332E3431205664
:1019CC002000332E343220562000332E3433205650
:1019DC002000332E343420562000332E343520563C
:1019EC002000332E343620562000332E3437205628
:1019FC002000332E343820562000332E3439205614
:101A0C002000332E353020562000332E3531205611
:101A1C002000332E353220562000332E35332056FD
:101A2C002000332E353420562000332E35352056E9
:101A3C002000332E353620562000332E35372056D5
:101A4C002000332E353820562000332E35392056C1
:101A5C002000332E363020562000332E36312056BF
:101A6C002000332E363220562000332E36332056AB
:101A7C002000332E363420562000332E3635205697
:101A8C002000332E363620562000332E3637205683
:101A9C002000332E363820562000332E363920566F
:101AAC002000332E373020562000332E373120566D
:101ABC002000332E373220562000332E3733205659
:101ACC002000332E373420562000332E3735205645
:101ADC002000332E373620562000332E3737205631
:101AEC002000332E373820562000332E373920561D
:101AFC002000332E383020562000332E383120561B
:101B0C002000332E383220562000332E3833205606
:101B1C002000332E383420562000332E38352056F2
:101B2C002000332E383620562000332E38372056DE
:101B3C002000332E383820562000332E38392056CA
:101B4C002000332E393020562000332E39312056C8
:101B5C002000332E393220562000332E39332056B4
:101B6C002000332E393420562000332E39352056A0
:101B7C002000332E393620562000332E393720568C
:101B8C002000332E393820562000332E3939205678
:101B9C002000342E303020562000342E3031205688
:101BAC002000342E303220562000342E3033205674
:101BBC002000342E303420562000342E3035205660
:101BCC002000342E303620562000342E303720564C
:101BDC002000342E303820562000342E3039205638
:101BEC002000342E313020562000342E3131205636
:101BFC002000342E313220562000342E3133205622
:101C0C002000342E313420562000342E313520560D
:101C1C002000342E313620562000342E31372056F9
:101C2C002000342E313820562000342E31392056E5
:101C3C002000342E323020562000342E32312056E3
:101C4C002000342E323220562000342E32332056CF
:101C5C002000342E323420562000342E32352056BB
:101C6C002000342E323620562000342E32372056A7
:101C7C002000342E323820562000342E3239205693
:101C8C002000342E333020562000342E3331205691
:101C9C002000342E333220562000342E333320567D
:101CAC002000342E333420562000342E3335205669
:101CBC002000342E333620562000342E3337205655
:101CCC002000342E333820562000342E3339205641
:101CDC002000342E343020562000342E343120563F
:101CEC002000342E343220562000342E343320562B
:101CFC002000342E343420562000342E3435205617
:101D0C002000342E343620562000342E3437205602
:101D1C002000342E343820562000342E34392056EE
:101D2C002000342E353020562000342E35312056EC
:101D3C002000342E353220562000342E35332056D8
:101D4C002000342E353420562000342E35352056C4
:101D5C002000342E353620562000342E35372056B0
:101D6C002000342E353820562000342E353920569C
:101D7C002000342E363020562000342E363120569A
:101D8C002000342E363220562000342E3633205686
:101D9C002000342E363420562000342E3635205672
:101DAC002000342E363620562000342E363720565E
:101DBC002000342E363820562000342E363920564A
:101DCC002000342E373020562000342E3731205648
:101DDC002000342E373220562000342E3733205634
:101DEC002000342E373420562000342E3735205620
:101DFC002000342E373620562000342E373720560C
:101E0C002000342E373820562000342E37392056F7
:101E1C002000342E383020562000342E38312056F5
:101E2C002000342E383220562000342E38332056E1
:101E3C002000342E383420562000342E38352056CD
:101E4C002000342E383620562000342E38372056B9
:101E5C002000342E383820562000342E38392056A5
:101E6C002000342E393020562000342E39312056A3
:101E7C002000342E393220562000342E393320568F
:101E8C002000342E393420562000342E393520567B
:101E9C002000342E393620562000342E3937205667
:101EAC002000342E393820562000342E3939205653
:101EBC002000352E303020562000F223FA23022445
:101ECC000A2412241A2422242A2432243A244224B6
:101EDC004A2452245A2462246A2472247A248224A6
:101EEC008A2492249A24A224AA24B224BA24C22496
:101EFC00CA24D224DA24E224EA24F224FA24022585
:101F0C000A2512251A2522252A2532253A2542256D
:101F1C004A2552255A2562256A2572257A2582255D
:101F2C008A2592259A25A225AA25B225BA25C2254D
:101F3C00CA25D225DA25E225EA25F225FA2502263C
:101F4C000A2612261A2622262A2632263A26422625
:101F5C004A2652265A2662266A2672267A26822615
:101F6C008A2692269A26A226AA26B226BA26C22605
:101F7C00CA26D226DA26E226EA26F226FA260227F4
:101F8C000A2712271A2722272A2732273A274227DD
:101F9C004A2752275A2762276A2772277A278227CD
:101FAC008A2792279A27A227AA27B227BA27C227BD
:101FBC00CA27D227DA27E227EA27F227FA270228AC
:101FCC000A2812281A2822282A2832283A28422895
:101FDC004A2852285A2862286A2872287A28822885
:101FEC008A2892289A28A228AA28B228BA28C22875
:101FFC00CA28D228DA28E228EA28F228FA28022964
:10200C000A2912291A2922292A2932293A2942294C
:10201C004A2952295A2962296A2972297A2982293C
:10202C008A2992299A29A229AA29B229BA29C2292C
:10203C00CA29D229DA29E229EA29F229FA29022A1B
:10204C000A2A122A1A2A222A2A2A322A3A2A422A04
:10205C004A2A522A5A2A622A6A2A722A7A2A822AF4
:10206C008A2A922A9A2AA22AAA2AB22ABA2AC22AE4
:10207C00CA2AD22ADA2AE22AEA2AF22AFA2A022BD3
:10208C000A2B122B1A2B222B2A2B322B3A2B422BBC
:10209C004A2B522B5A2B622B6A2B722B7A2B822BAC
:1020AC008A2B922B9A2BA22BAA2BB22BBA2BC22B9C
:0220BC00CA2B2D
:00000001FF
