S00D00004C616237622E737265636F
S11300000C94FE000C941C010C941C010C941C0117
S11300100C941C010C941C010C941C010C941C01E8
S11300200C941C010C941C010C941C010C941C01D8
S11300300C941C010C941C010C941C010C941C01C8
S11300400C941C010C941C010C941C010C941C01B8
S11300500C941C010C941C010C941C010C941C01A8
S11300600C941C010C941C010C941C010C941C0198
S11300700C941C010C941C010C941C010C941C0188
S11300800C941C010C941C010C941C010C941C0178
S11300900C941C010C941C010C941C010C941C0168
S11300A00C941C010C941C010C941C010C941C0158
S11300B00C941C010C941C010C941C010C941C0148
S11300C00C941C010C941C010C941C010C941C0138
S11300D00C941C010C941C010C941C010C941C0128
S11300E00C941C010C941C010C941C010C941C0118
S11300F00C941C010C941C010C941C010C941C0108
S11301000C941C010C941C010C941C010C941C01F7
S11301100C941C010C941C010C941C010C941C01E7
S11301200C941C010C941C010C941C010C941C01D7
S11301300C941C010C941C010C941C010C941C01C7
S11301400C941C010C941C010C941C010C941C01B7
S11301500C941C010C941C010C941C010C941C01A7
S11301600C941C010C941C010C941C010C941C0197
S11301700C941C010C941C010C941C010C941C0187
S11301800C941C010C941C010C941C010C941C0177
S11301900C941C010C941C010C941C010C941C0167
S11301A00C941C010C941C010C941C010C941C0157
S11301B00C941C010C941C010C941C010C941C0147
S11301C00C941C010C941C010C941C010C941C0137
S11301D00C941C010C941C010C941C010C941C0127
S11301E00C941C010C941C010C941C010C941C0117
S11301F00C941C010C941C010C941C0111241FBEB2
S1130200CFEFCDBFDFE3DEBF00E00CBF18BE19BEE9
S11302101ABE1BBE10E2A0E0B0E2ECE0F3E000E0A6
S11302200BBF02C007900D92A238B107D9F71BBECD
S11302300E946D010C9484010C94000082E0809370
S11302405000E0E5F0E0818181FFFDCF88ED84BFBF
S113025081E080934000089584E080930006E0E00C
S1130260F3E085E08083118288E1828308959C0114
S1130270E0E0F3E0958190FFFDCF209318033093E5
S113028019030895CF93DF9300D01F92CDB7DEB743
S113029019821A821B821C8289819A81AB81BC815A
S11302A08697A105B10598F489819A81AB81BC81B7
S11302B00196A11DB11D89839A83AB83BC83898177
S11302C09A81AB81BC818697A105B10568F3249618
S11302D0CDBFDEBFDF91CF9108950E941E010E9421
S11302E02C010F2EF0E0EF2EF0E2FF2EF02D02E8AD
S11302F010E2E701899199910E9437010E9442011D
S10F0300C017D107B9F7F5CFF894FFCF70
S113030C0008C8088F09520A0F0BC50B710C120D8B
S113031CA70D2E0EA60E0D0F630FA70FD80FF50FFA
S113032CFF0FF50FD80FA70F630F0D0FA60E2E0E90
S113033CA70D120D710CC50B0F0B520A8F09C808AF
S113034C000837077006AD05F0043A048E03ED027D
S113035C5802D1015901F2009C00580027000A00F0
S113036C00000A00270058009C00F2005901D1013A
S113037C5802ED028E033A04F004AD0570063707FB
S105038C000863
S9030000FC
