S00D00006C616236662E737265634C
S11300000C94FE000C9416010C949D020C941601A1
S11300100C9416010C9416010C9416010C94160100
S11300200C9416010C9416010C9416010C941601F0
S11300300C9416010C9416010C9416010C941601E0
S11300400C9416010C9416010C9416010C941601D0
S11300500C9416010C9416010C9416010C941601C0
S11300600C9416010C9416010C9416010C941601B0
S11300700C9416010C9416010C9416010C941601A0
S11300800C9416010C9416010C9416010C94160190
S11300900C9416010C9416010C9416010C94160180
S11300A00C9416010C9416010C9416010C94160170
S11300B00C9416010C9416010C9416010C94160160
S11300C00C9416010C9416010C9416010C94160150
S11300D00C9416010C9416010C9416010C94160140
S11300E00C9416010C9416010C9416010C94160130
S11300F00C9416010C9416010C9416010C94160120
S11301000C9416010C9416010C94DF020C94160145
S11301100C9416010C9416010C9416010C941601FF
S11301200C9416010C9416010C9416010C941601EF
S11301300C9416010C9416010C9416010C941601DF
S11301400C9416010C9416010C9416010C941601CF
S11301500C9416010C9416010C9416010C941601BF
S11301600C9416010C9416010C9416010C941601AF
S11301700C9416010C9416010C9416010C9416019F
S11301800C9416010C9416010C9416010C9416018F
S11301900C9416010C9416010C9416010C9416017F
S11301A00C9416010C9416010C9416010C9416016F
S11301B00C9416010C9416010C9416010C9416015F
S11301C00C9416010C9416010C9416010C9416014F
S11301D00C9416010C9416010C9416010C9416013F
S11301E00C9416010C9416010C9416010C9416012F
S11301F00C9416010C9416010C94160111241FBEC4
S1130200CFEFCDBFDFE3DEBF00E00CBF18BE19BEE9
S11302101ABE1BBE20E2A0E0B0E201C01D92A230D3
S1130220B207E1F70E9421030C94A0030C94000090
S1130230CF93DF93CDB7DEB780E590E022E0FC01F9
S11302402083000080E590E0FC018181882F90E00C
S113025082709927892BB1F384E390E028EDFC01A7
S1130260208380E490E021E0FC012083DF91CF91A2
S11302700895CF93DF93CDB7DEB780E096E028EF03
S1130280FC01208380E096E0FC01148280EA96E081
S11302902FEBFC01208380EA96E028E1FC01248313
S11302A080EC9BE024E5FC012083DF91CF9108954D
S11302B0CF93DF93CDB7DEB780E696E028EFFC015D
S11302C0218380E696E028EFFC01258380E696E012
S11302D024E0FC01228380EC97E02AE0FC012183E6
S11302E080EC97E02AE0FC01268380EA99E028E08C
S11302F0FC01268380EA99E020EDFC01278380EA53
S113030099E028E1FC01248380EA99E02BE0FC01D8
S11303102583DF91CF910895CF93DF931F92CDB7BB
S1130320DEB7898380EC9BE02981FC0123830000F4
S113033080EC9BE0FC0182818823D4F780EC9BE075
S1130340FC0183810F90DF91CF910895CF93DF93C8
S11303501F921F92CDB7DEB78A8380EA96E024E02D
S1130360FC01258380EA96E028E0FC0126838A814B
S1130370837780680E948C01898380EA96E028E074
S1130380FC01258389810F900F90DF91CF9108950F
S1130390CF93DF9300D0CDB7DEB78A836B8380EA37
S11303A096E024E0FC01258380EA96E028E0FC0145
S11303B026838A810E948C0189838B810E948C010F
S11303C0898380EA96E028E0FC0125832396CDBF4B
S11303D0DEBFDF91CF910895CF93DF931F921F92D9
S11303E0CDB7DEB78A8380EA96E020E1FC0126835C
S11303F08A81837780680E948C01898380EA96E0F1
S113040020E1FC01258389810F900F90DF91CF912A
S11304100895CF93DF9300D01F92CDB7DEB78B83BF
S11304206C8380EA96E020E1FC0126838B810E94A4
S11304308C018A838C810E948C018A8380EA96E0F5
S113044020E1FC0125832496CDBFDEBFDF91CF914F
S11304500895CF93DF93CDB7DEB780E496E0FC0137
S1130460108280E496E021E0FC01218780E496E09C
S113047020E8FC01228780E496E022E0FC01278B3F
S113048061E083E20E94C80169EC83E20E94C80132
S113049067E980E20E94C801DF91CF910895CF936C
S11304A0DF93CDB7DEB780E096E028E0FC0124833B
S11304B080E096E021E0FC01218780E096E022E0E4
S11304C0FC01228780E096E020E036E0F9012181FA
S11304D02D7FFC01218380E096E021E0FC01278B45
S11304E061E080E20E9409026FEC80E20E9409024E
S11304F068E082E20E94090260E383E20E9409024A
S1130500DF91CF910895CF93DF931F92CDB7DEB7DC
S11305108983000080EA99E0FC018181882F90E0C2
S113052080729927892BB1F380EA99E02981FC0133
S113053020830F90DF91CF9108951F920F92009026
S11305403F000F921124009038000F92109238004F
S113055000903A000F9210923A0000903B000F92E4
S113056010923B002F933F938F939F93EF93FF93AE
S1130570CF93DF93CDB7DEB781E08093002080E492
S113058096E020E436E0F90124852160FC0124870B
S1130590DF91CF91FF91EF919F918F913F912F9197
S11305A00F9000923B000F9000923A000F9000923F
S11305B038000F9000923F000F901F9018951F92E3
S11305C00F9200903F000F921124009038000F9278
S11305D01092380000903A000F9210923A00009066
S11305E03B000F9210923B002F933F938F939F9366
S11305F0EF93FF93CF93DF93CDB7DEB781E0809382
S1130600012080E096E020E036E0F90124852160B5
S1130610FC012487DF91CF91FF91EF919F918F91FE
S11306203F912F910F9000923B000F9000923A005F
S11306300F90009238000F9000923F000F901F908F
S11306401895CF93DF93CDB7DEB72C97CDBFDEBF20
S11306500E9418010E9439010E9458010E94290237
S11306600E944F0280EA90E021E0FC01228378940A
S1130670809100208130D9F489E20E94A601898307
S113068088E20E94A6018A838BE20E94A6018B83E2
S11306908AE20E94A6018C838DE20E94A6018D83CA
S11306A08CE20E94A6018E83109200201EC08091CD
S11306B001208130D1F489E20E94EC018F8388E229
S11306C00E94EC0188878BE20E94EC0189878AE210
S11306D00E94EC018A878DE20E94EC018B878CE2F8
S11306E00E94EC018C871092012083E00E94830217
S11306F08A810E94830289810E9483028C810E94E4
S113070083028B810E9483028E810E9483028D81E9
S11307100E94830288850E9483028F810E94830243
S11307208A850E94830289850E9483028C850E94A7
S113073083028B850E9483028CEF0E94830298CFF0
S1070740F894FFCF57
S9030000FC
